:100000000C9434000C943E000C943E000C943E0082
:100010000C943E000C943E000C943E000C943E0068
:100020000C943E000C943E000C943E000C943E0058
:100030000C943E000C943E000C943E000C943E0048
:100040000C943E000C943E000C9455000C943E0021
:100050000C943E000C943E000C943E000C943E0028
:100060000C943E000C943E0011241FBECFEFD8E04C
:10007000DEBFCDBF0E9471000C9477000C9400008D
:100080008FE087B982E08AB918B808951092C0004D
:1000900088E98093C10086E08093C2008FE590E0FC
:1000A0009093C5008093C4000895E6ECF0E0808151
:1000B0008083843689F018F4813659F010C0833774
:1000C00029F0873761F485E088B90AC08AE088B9E9
:1000D00007C086E088B904C089E088B901C018B8B3
:1000E00018950E9440000E9446007894FFCFF89433
:0200F000FFCF40
:00000001FF
