:100000000C9434000C943E000C943E000C943E0082
:100010000C943E000C943E000C943E000C943E0068
:100020000C943E000C943E000C943E000C943E0058
:100030000C943E000C943E000C943E000C943E0048
:100040000C943E000C943E000C9440000C943E0036
:100050000C943E000C943E000C943E000C943E0028
:100060000C943E000C943E0011241FBECFEFD8E04C
:10007000DEBFCDBF0E945C000C945F000C940000BA
:10008000E6ECF0E080818083843689F018F48136D4
:1000900059F010C0833729F0873761F48AE088B9B6
:1000A0000AC085E088B907C088E088B904C082E04A
:1000B00088B901C018B8189580E090E00895F894C8
:0200C000FFCF70
:00000001FF
